{
  "contractName": "Autorisation",
  "abi": [
    {
      "inputs": [
        {
          "name": "register",
          "type": "address"
        }
      ],
      "payable": false,
      "stateMutability": "nonpayable",
      "type": "constructor"
    },
    {
      "constant": false,
      "inputs": [
        {
          "name": "_patientAddress",
          "type": "address"
        }
      ],
      "name": "addAutorisation",
      "outputs": [],
      "payable": false,
      "stateMutability": "nonpayable",
      "type": "function"
    },
    {
      "constant": true,
      "inputs": [
        {
          "name": "_providerAddress",
          "type": "address"
        }
      ],
      "name": "getAutorizedAdressesProvieder",
      "outputs": [
        {
          "name": "",
          "type": "address[]"
        }
      ],
      "payable": false,
      "stateMutability": "view",
      "type": "function"
    },
    {
      "constant": true,
      "inputs": [
        {
          "name": "_patientAddress",
          "type": "address"
        }
      ],
      "name": "getAutorizedAdressesPatient",
      "outputs": [
        {
          "name": "",
          "type": "address[]"
        }
      ],
      "payable": false,
      "stateMutability": "view",
      "type": "function"
    },
    {
      "constant": true,
      "inputs": [
        {
          "name": "_patientAddress",
          "type": "address"
        }
      ],
      "name": "isAutorized",
      "outputs": [
        {
          "name": "",
          "type": "bool"
        }
      ],
      "payable": false,
      "stateMutability": "view",
      "type": "function"
    },
    {
      "constant": true,
      "inputs": [
        {
          "name": "_provider",
          "type": "address"
        },
        {
          "name": "_patientAddress",
          "type": "address"
        }
      ],
      "name": "isAutorizedTreatment",
      "outputs": [
        {
          "name": "",
          "type": "bool"
        }
      ],
      "payable": false,
      "stateMutability": "view",
      "type": "function"
    }
  ],
  "bytecode": "0x608060405234801561001057600080fd5b50604051602080610b4283398101806040528101908080519060200190929190505050806000806101000a81548173ffffffffffffffffffffffffffffffffffffffff021916908373ffffffffffffffffffffffffffffffffffffffff16021790555050610abf806100836000396000f30060806040526004361061006d576000357c0100000000000000000000000000000000000000000000000000000000900463ffffffff1680632d6c2ae2146100725780637b74d446146100b55780637e866dce1461014d5780638d88cdfa146101e55780639e1af26a14610260575b600080fd5b34801561007e57600080fd5b506100b3600480360381019080803573ffffffffffffffffffffffffffffffffffffffff1690602001909291905050506102bb565b005b3480156100c157600080fd5b506100f6600480360381019080803573ffffffffffffffffffffffffffffffffffffffff1690602001909291905050506106be565b6040518080602001828103825283818151815260200191508051906020019060200280838360005b8381101561013957808201518184015260208101905061011e565b505050509050019250505060405180910390f35b34801561015957600080fd5b5061018e600480360381019080803573ffffffffffffffffffffffffffffffffffffffff16906020019092919050505061078b565b6040518080602001828103825283818151815260200191508051906020019060200280838360005b838110156101d15780820151818401526020810190506101b6565b505050509050019250505060405180910390f35b3480156101f157600080fd5b50610246600480360381019080803573ffffffffffffffffffffffffffffffffffffffff169060200190929190803573ffffffffffffffffffffffffffffffffffffffff169060200190929190505050610858565b604051808215151515815260200191505060405180910390f35b34801561026c57600080fd5b506102a1600480360381019080803573ffffffffffffffffffffffffffffffffffffffff169060200190929190505050610976565b604051808215151515815260200191505060405180910390f35b60006060806000809054906101000a900473ffffffffffffffffffffffffffffffffffffffff1692508273ffffffffffffffffffffffffffffffffffffffff1663eada8dac856040518263ffffffff167c0100000000000000000000000000000000000000000000000000000000028152600401808273ffffffffffffffffffffffffffffffffffffffff1673ffffffffffffffffffffffffffffffffffffffff168152602001915050600060405180830381600087803b15801561037f57600080fd5b505af1158015610393573d6000803e3d6000fd5b505050506040513d6000823e3d601f19601f8201168201806040525060208110156103bd57600080fd5b8101908080516401000000008111156103d557600080fd5b828101905060208101848111156103eb57600080fd5b815185600182028301116401000000008211171561040857600080fd5b505092919050505091508273ffffffffffffffffffffffffffffffffffffffff1663eada8dac336040518263ffffffff167c0100000000000000000000000000000000000000000000000000000000028152600401808273ffffffffffffffffffffffffffffffffffffffff1673ffffffffffffffffffffffffffffffffffffffff168152602001915050600060405180830381600087803b1580156104ad57600080fd5b505af11580156104c1573d6000803e3d6000fd5b505050506040513d6000823e3d601f19601f8201168201806040525060208110156104eb57600080fd5b81019080805164010000000081111561050357600080fd5b8281019050602081018481111561051957600080fd5b815185600182028301116401000000008211171561053657600080fd5b5050929190505050905060008251118015610552575060008151115b151561055d57600080fd5b61056684610976565b15151561057257600080fd5b600160003373ffffffffffffffffffffffffffffffffffffffff1673ffffffffffffffffffffffffffffffffffffffff1681526020019081526020016000208490806001815401808255809150509060018203906000526020600020016000909192909190916101000a81548173ffffffffffffffffffffffffffffffffffffffff021916908373ffffffffffffffffffffffffffffffffffffffff16021790555050600260008573ffffffffffffffffffffffffffffffffffffffff1673ffffffffffffffffffffffffffffffffffffffff1681526020019081526020016000203390806001815401808255809150509060018203906000526020600020016000909192909190916101000a81548173ffffffffffffffffffffffffffffffffffffffff021916908373ffffffffffffffffffffffffffffffffffffffff1602179055505050505050565b6060600160008373ffffffffffffffffffffffffffffffffffffffff1673ffffffffffffffffffffffffffffffffffffffff16815260200190815260200160002080548060200260200160405190810160405280929190818152602001828054801561077f57602002820191906000526020600020905b8160009054906101000a900473ffffffffffffffffffffffffffffffffffffffff1673ffffffffffffffffffffffffffffffffffffffff1681526020019060010190808311610735575b50505050509050919050565b6060600260008373ffffffffffffffffffffffffffffffffffffffff1673ffffffffffffffffffffffffffffffffffffffff16815260200190815260200160002080548060200260200160405190810160405280929190818152602001828054801561084c57602002820191906000526020600020905b8160009054906101000a900473ffffffffffffffffffffffffffffffffffffffff1673ffffffffffffffffffffffffffffffffffffffff1681526020019060010190808311610802575b50505050509050919050565b600080600090505b600160008573ffffffffffffffffffffffffffffffffffffffff1673ffffffffffffffffffffffffffffffffffffffff1681526020019081526020016000208054905081101561096a578273ffffffffffffffffffffffffffffffffffffffff16600160008673ffffffffffffffffffffffffffffffffffffffff1673ffffffffffffffffffffffffffffffffffffffff1681526020019081526020016000208281548110151561090d57fe5b9060005260206000200160009054906101000a900473ffffffffffffffffffffffffffffffffffffffff1673ffffffffffffffffffffffffffffffffffffffff16141561095d576001915061096f565b8080600101915050610860565b600091505b5092915050565b600080600090505b600160003373ffffffffffffffffffffffffffffffffffffffff1673ffffffffffffffffffffffffffffffffffffffff16815260200190815260200160002080549050811015610a88578273ffffffffffffffffffffffffffffffffffffffff16600160003373ffffffffffffffffffffffffffffffffffffffff1673ffffffffffffffffffffffffffffffffffffffff16815260200190815260200160002082815481101515610a2b57fe5b9060005260206000200160009054906101000a900473ffffffffffffffffffffffffffffffffffffffff1673ffffffffffffffffffffffffffffffffffffffff161415610a7b5760019150610a8d565b808060010191505061097e565b600091505b509190505600a165627a7a72305820b740f1145c0d1c60ec4d8979b1b10c3310bbec6e3a56a0552a53d2280161ea4c0029",
  "source": "pragma solidity 0.4.24;\n\nimport \"./Register.sol\";\n\ncontract Autorisation {\n\n    address registerContract;\n\n    constructor(address register) public {\n        registerContract = register;\n    }\n    //mapping to check the autorisation for the provider\n    mapping(address => address[]) private autorisationProvider;\n\n    //mapping to check the autorisation for the patient\n    mapping(address => address[]) private autorisationPatient;\n\n    //provider add autorisation\n    function addAutorisation(address _patientAddress) public {\n        Register register = Register(registerContract);\n        //get ipfs hash for patient and provider to check if they are already registered\n        string memory _ipfsHashPatient = register.getPersonalIPFSHashForProvider(_patientAddress);\n        string memory _ipfsHashProvider = register.getPersonalIPFSHashForProvider(msg.sender);\n        require(bytes(_ipfsHashPatient).length > 0 && bytes(_ipfsHashProvider).length > 0);\n        //check if relationship doesnt exist\n        require(!isAutorized(_patientAddress));\n        //Add mapping in both directions patient - provider and provider - patient\n        autorisationProvider[msg.sender].push(_patientAddress);\n        autorisationPatient[_patientAddress].push(msg.sender);\n    }\n\n    //get back an array of autorized addresses from provider\n    function getAutorizedAdressesProvieder(address _providerAddress) public view returns(address[]){\n        return autorisationProvider[_providerAddress];\n    }\n\n    //get back an array of autorized addresses forom patient\n    function getAutorizedAdressesPatient(address _patientAddress) public view returns(address[]){\n        return autorisationPatient[_patientAddress];\n    }\n\n    //check if provider is autorized\n    function isAutorized(address _patientAddress) public view returns(bool){\n        for (uint i=0; i < autorisationProvider[msg.sender].length; i++) {\n            if(autorisationProvider[msg.sender][i] == _patientAddress){\n                return true;\n            }\n        }\n        return false;\n    }\n\n    //check if provider is autorized\n    function isAutorizedTreatment(address _provider, address _patientAddress) public view returns(bool){\n        for (uint i=0; i < autorisationProvider[_provider].length; i++) {\n            if(autorisationProvider[_provider][i] == _patientAddress){\n                return true;\n            }\n        }\n        return false;\n    }\n}",
  "sourcePath": "/home/pf/Documents/MasterthesisEMR/contracts/Autorisation.sol",
  "compiler": {
    "name": "solc",
    "version": "0.4.24+commit.e67f0147.Emscripten.clang"
  },
  "schemaVersion": "2.0.1",
  "updatedAt": "2018-12-07T18:11:25.426Z"
}