{
  "contractName": "Register",
  "abi": [
    {
      "constant": false,
      "inputs": [
        {
          "name": "_ipfsHashAccountdata",
          "type": "string"
        }
      ],
      "name": "addUserAddress",
      "outputs": [],
      "payable": false,
      "stateMutability": "nonpayable",
      "type": "function"
    },
    {
      "constant": false,
      "inputs": [
        {
          "name": "_ipfsHashAccountdata",
          "type": "string"
        }
      ],
      "name": "editUser",
      "outputs": [],
      "payable": false,
      "stateMutability": "nonpayable",
      "type": "function"
    },
    {
      "constant": true,
      "inputs": [],
      "name": "getPersonalIPFSHash",
      "outputs": [
        {
          "name": "",
          "type": "string"
        }
      ],
      "payable": false,
      "stateMutability": "view",
      "type": "function"
    },
    {
      "constant": true,
      "inputs": [
        {
          "name": "patientAddress",
          "type": "address"
        }
      ],
      "name": "getPersonalIPFSHashForProvider",
      "outputs": [
        {
          "name": "",
          "type": "string"
        }
      ],
      "payable": false,
      "stateMutability": "view",
      "type": "function"
    }
  ],
  "bytecode": "0x608060405234801561001057600080fd5b50610621806100206000396000f300608060405260043610610062576000357c0100000000000000000000000000000000000000000000000000000000900463ffffffff1680638175449414610067578063d9d3c97d146100d0578063de329d4a14610160578063eada8dac146101c9575b600080fd5b34801561007357600080fd5b506100ce600480360381019080803590602001908201803590602001908080601f0160208091040260200160405190810160405280939291908181526020018383808284378201915050505050509192919290505050610285565b005b3480156100dc57600080fd5b506100e56102db565b6040518080602001828103825283818151815260200191508051906020019080838360005b8381101561012557808201518184015260208101905061010a565b50505050905090810190601f1680156101525780820380516001836020036101000a031916815260200191505b509250505060405180910390f35b34801561016c57600080fd5b506101c7600480360381019080803590602001908201803590602001908080601f01602080910402602001604051908101604052809392919081815260200183838082843782019150505050505091929192905050506103b9565b005b3480156101d557600080fd5b5061020a600480360381019080803573ffffffffffffffffffffffffffffffffffffffff169060200190929190505050610470565b6040518080602001828103825283818151815260200191508051906020019080838360005b8381101561024a57808201518184015260208101905061022f565b50505050905090810190601f1680156102775780820380516001836020036101000a031916815260200191505b509250505060405180910390f35b806000803373ffffffffffffffffffffffffffffffffffffffff1673ffffffffffffffffffffffffffffffffffffffff16815260200190815260200160002090805190602001906102d7929190610550565b5050565b60606000803373ffffffffffffffffffffffffffffffffffffffff1673ffffffffffffffffffffffffffffffffffffffff1681526020019081526020016000208054600181600116156101000203166002900480601f0160208091040260200160405190810160405280929190818152602001828054600181600116156101000203166002900480156103af5780601f10610384576101008083540402835291602001916103af565b820191906000526020600020905b81548152906001019060200180831161039257829003601f168201915b5050505050905090565b60008060003373ffffffffffffffffffffffffffffffffffffffff1673ffffffffffffffffffffffffffffffffffffffff16815260200190815260200160002080546001816001161561010002031660029004905014151561041a57600080fd5b806000803373ffffffffffffffffffffffffffffffffffffffff1673ffffffffffffffffffffffffffffffffffffffff168152602001908152602001600020908051906020019061046c929190610550565b5050565b60606000808373ffffffffffffffffffffffffffffffffffffffff1673ffffffffffffffffffffffffffffffffffffffff1681526020019081526020016000208054600181600116156101000203166002900480601f0160208091040260200160405190810160405280929190818152602001828054600181600116156101000203166002900480156105445780601f1061051957610100808354040283529160200191610544565b820191906000526020600020905b81548152906001019060200180831161052757829003601f168201915b50505050509050919050565b828054600181600116156101000203166002900490600052602060002090601f016020900481019282601f1061059157805160ff19168380011785556105bf565b828001600101855582156105bf579182015b828111156105be5782518255916020019190600101906105a3565b5b5090506105cc91906105d0565b5090565b6105f291905b808211156105ee5760008160009055506001016105d6565b5090565b905600a165627a7a7230582009bf577f437e969dd42854da8a0986a134d55e1ded68ac53e140b6b32fe0396a0029",
  "source": "pragma solidity ^0.4.24;\n\ncontract Register {\n\n    //create a mapping to match an account to the ipfs data storage\n    mapping(address => string) private users;\n\n    //at the registration, any user gets an address with their ipfs hash. Store this transaction on the blockchain\n    function addUserAddress (string memory _ipfsHashAccountdata) public {\n        //Check if the address is not existing in mapping\n        require(bytes(users[msg.sender]).length == 0);\n        //Add ipfs hash value to account\n        users[msg.sender] = _ipfsHashAccountdata;\n    }\n\n    //at the registration, any user gets an address with their ipfs hash. Store this transaction on the blockchain\n    function editUser(string memory _ipfsHashAccountdata) public {\n        //Add ipfs hash value to account\n        users[msg.sender] = _ipfsHashAccountdata;\n    }\n\n    //get ipfs hash matched to account\n    function getPersonalIPFSHash() public view returns(string memory){\n        return users[msg.sender];\n    }\n\n    //get ipfs hash matched to specific address\n    function getPersonalIPFSHashForProvider(address patientAddress) public view returns(string memory){\n        return users[patientAddress];\n    }\n}",
  "sourcePath": "/home/pf/Documents/MasterthesisEMR/contracts/Register.sol",
  "compiler": {
    "name": "solc",
    "version": "0.4.24+commit.e67f0147.Emscripten.clang"
  },
  "schemaVersion": "2.0.1",
  "updatedAt": "2018-12-07T18:11:25.423Z"
}