{
  "contractName": "Treatment",
  "abi": [
    {
      "inputs": [
        {
          "name": "auto",
          "type": "address"
        }
      ],
      "payable": false,
      "stateMutability": "nonpayable",
      "type": "constructor"
    },
    {
      "constant": false,
      "inputs": [
        {
          "name": "_patientAddress",
          "type": "address"
        },
        {
          "name": "_ipfsHash",
          "type": "string"
        }
      ],
      "name": "addTreatment",
      "outputs": [],
      "payable": false,
      "stateMutability": "nonpayable",
      "type": "function"
    },
    {
      "constant": true,
      "inputs": [],
      "name": "getAllTreatmentsForPatient",
      "outputs": [
        {
          "name": "",
          "type": "address[]"
        }
      ],
      "payable": false,
      "stateMutability": "view",
      "type": "function"
    },
    {
      "constant": false,
      "inputs": [
        {
          "name": "counter",
          "type": "uint256"
        }
      ],
      "name": "getAllTreatmentsForPatientIpfs",
      "outputs": [
        {
          "name": "",
          "type": "string"
        }
      ],
      "payable": false,
      "stateMutability": "nonpayable",
      "type": "function"
    },
    {
      "constant": true,
      "inputs": [],
      "name": "getAllTreatmentsForProvider",
      "outputs": [
        {
          "name": "",
          "type": "address[]"
        }
      ],
      "payable": false,
      "stateMutability": "view",
      "type": "function"
    },
    {
      "constant": false,
      "inputs": [
        {
          "name": "counter",
          "type": "uint256"
        }
      ],
      "name": "getAllTreatmentsForProviderIpfs",
      "outputs": [
        {
          "name": "",
          "type": "string"
        }
      ],
      "payable": false,
      "stateMutability": "nonpayable",
      "type": "function"
    }
  ],
  "bytecode": "0x608060405234801561001057600080fd5b50604051602080610cfd83398101806040528101908080519060200190929190505050806000806101000a81548173ffffffffffffffffffffffffffffffffffffffff021916908373ffffffffffffffffffffffffffffffffffffffff16021790555050610c7a806100836000396000f30060806040526004361061006d576000357c0100000000000000000000000000000000000000000000000000000000900463ffffffff168063298359f71461007257806335aadabe146101185780634a10a34d146101be5780634b670e4614610247578063d218ca2c146102b3575b600080fd5b34801561007e57600080fd5b5061009d6004803603810190808035906020019092919050505061031f565b6040518080602001828103825283818151815260200191508051906020019080838360005b838110156100dd5780820151818401526020810190506100c2565b50505050905090810190601f16801561010a5780820380516001836020036101000a031916815260200191505b509250505060405180910390f35b34801561012457600080fd5b506101436004803603810190808035906020019092919050505061041e565b6040518080602001828103825283818151815260200191508051906020019080838360005b83811015610183578082015181840152602081019050610168565b50505050905090810190601f1680156101b05780820380516001836020036101000a031916815260200191505b509250505060405180910390f35b3480156101ca57600080fd5b50610245600480360381019080803573ffffffffffffffffffffffffffffffffffffffff169060200190929190803590602001908201803590602001908080601f016020809104026020016040519081016040528093929190818152602001838380828437820191505050505050919291929050505061051d565b005b34801561025357600080fd5b5061025c610855565b6040518080602001828103825283818151815260200191508051906020019060200280838360005b8381101561029f578082015181840152602081019050610284565b505050509050019250505060405180910390f35b3480156102bf57600080fd5b506102c86109ff565b6040518080602001828103825283818151815260200191508051906020019060200280838360005b8381101561030b5780820151818401526020810190506102f0565b505050509050019250505060405180910390f35b6060600160003373ffffffffffffffffffffffffffffffffffffffff1673ffffffffffffffffffffffffffffffffffffffff1681526020019081526020016000208281548110151561036d57fe5b90600052602060002090600202016001018054600181600116156101000203166002900480601f0160208091040260200160405190810160405280929190818152602001828054600181600116156101000203166002900480156104125780601f106103e757610100808354040283529160200191610412565b820191906000526020600020905b8154815290600101906020018083116103f557829003601f168201915b50505050509050919050565b6060600260003373ffffffffffffffffffffffffffffffffffffffff1673ffffffffffffffffffffffffffffffffffffffff1681526020019081526020016000208281548110151561046c57fe5b90600052602060002090600202016001018054600181600116156101000203166002900480601f0160208091040260200160405190810160405280929190818152602001828054600181600116156101000203166002900480156105115780601f106104e657610100808354040283529160200191610511565b820191906000526020600020905b8154815290600101906020018083116104f457829003601f168201915b50505050509050919050565b60008060009054906101000a900473ffffffffffffffffffffffffffffffffffffffff1690508073ffffffffffffffffffffffffffffffffffffffff16638d88cdfa33856040518363ffffffff167c0100000000000000000000000000000000000000000000000000000000028152600401808373ffffffffffffffffffffffffffffffffffffffff1673ffffffffffffffffffffffffffffffffffffffff1681526020018273ffffffffffffffffffffffffffffffffffffffff1673ffffffffffffffffffffffffffffffffffffffff16815260200192505050602060405180830381600087803b15801561061257600080fd5b505af1158015610626573d6000803e3d6000fd5b505050506040513d602081101561063c57600080fd5b8101908080519060200190929190505050151561065857600080fd5b600160003373ffffffffffffffffffffffffffffffffffffffff1673ffffffffffffffffffffffffffffffffffffffff16815260200190815260200160002060408051908101604052808573ffffffffffffffffffffffffffffffffffffffff168152602001848152509080600181540180825580915050906001820390600052602060002090600202016000909192909190915060008201518160000160006101000a81548173ffffffffffffffffffffffffffffffffffffffff021916908373ffffffffffffffffffffffffffffffffffffffff1602179055506020820151816001019080519060200190610750929190610ba9565b50505050600260008473ffffffffffffffffffffffffffffffffffffffff1673ffffffffffffffffffffffffffffffffffffffff16815260200190815260200160002060408051908101604052803373ffffffffffffffffffffffffffffffffffffffff168152602001848152509080600181540180825580915050906001820390600052602060002090600202016000909192909190915060008201518160000160006101000a81548173ffffffffffffffffffffffffffffffffffffffff021916908373ffffffffffffffffffffffffffffffffffffffff160217905550602082015181600101908051906020019061084c929190610ba9565b50505050505050565b606080600080600160003373ffffffffffffffffffffffffffffffffffffffff1673ffffffffffffffffffffffffffffffffffffffff168152602001908152602001600020805490506040519080825280602002602001820160405280156108cc5781602001602082028038833980820191505090505b509250600091505b600160003373ffffffffffffffffffffffffffffffffffffffff1673ffffffffffffffffffffffffffffffffffffffff168152602001908152602001600020805490508210156109f657600160003373ffffffffffffffffffffffffffffffffffffffff1673ffffffffffffffffffffffffffffffffffffffff1681526020019081526020016000208281548110151561096a57fe5b906000526020600020906002020160000160009054906101000a900473ffffffffffffffffffffffffffffffffffffffff1690508083838151811015156109ad57fe5b9060200190602002019073ffffffffffffffffffffffffffffffffffffffff16908173ffffffffffffffffffffffffffffffffffffffff168152505081806001019250506108d4565b82935050505090565b606080600080600260003373ffffffffffffffffffffffffffffffffffffffff1673ffffffffffffffffffffffffffffffffffffffff16815260200190815260200160002080549050604051908082528060200260200182016040528015610a765781602001602082028038833980820191505090505b509250600091505b600260003373ffffffffffffffffffffffffffffffffffffffff1673ffffffffffffffffffffffffffffffffffffffff16815260200190815260200160002080549050821015610ba057600260003373ffffffffffffffffffffffffffffffffffffffff1673ffffffffffffffffffffffffffffffffffffffff16815260200190815260200160002082815481101515610b1457fe5b906000526020600020906002020160000160009054906101000a900473ffffffffffffffffffffffffffffffffffffffff169050808383815181101515610b5757fe5b9060200190602002019073ffffffffffffffffffffffffffffffffffffffff16908173ffffffffffffffffffffffffffffffffffffffff16815250508180600101925050610a7e565b82935050505090565b828054600181600116156101000203166002900490600052602060002090601f016020900481019282601f10610bea57805160ff1916838001178555610c18565b82800160010185558215610c18579182015b82811115610c17578251825591602001919060010190610bfc565b5b509050610c259190610c29565b5090565b610c4b91905b80821115610c47576000816000905550600101610c2f565b5090565b905600a165627a7a723058207664769aec4337c705d8bf4d555ecd93a03a8dc449865f81e4b7b30963e39cd00029",
  "source": "pragma solidity 0.4.24;\n\nimport \"./Autorisation.sol\";\n\ncontract Treatment {\n\n    address autorizationContract;\n    constructor(address auto) public {\n        autorizationContract = auto;\n    }\n\n\n    //create treatment\n    struct TreatmentPatient{\n        address patientAddress;\n        string ipfsHash;\n    }\n\n    //create treatment\n    struct TreatmentProvider{\n        address providerAddress;\n        string ipfsHash;\n    }\n\n    //mapping patient and provider address to treatment\n    mapping(address => TreatmentPatient[]) private treatmentsProvider;\n    mapping(address => TreatmentProvider[]) private treatmentsPatient;\n\n    function addTreatment(address _patientAddress, string _ipfsHash) public {\n        Autorisation auto = Autorisation(autorizationContract);\n        require(auto.isAutorizedTreatment(msg.sender,_patientAddress));\n\n        treatmentsProvider[msg.sender].push(TreatmentPatient(_patientAddress, _ipfsHash));\n        treatmentsPatient[_patientAddress].push(TreatmentProvider(msg.sender, _ipfsHash));\n    }\n\n    //get address array back. Patient get all provider addresses which he get treatments from\n    function getAllTreatmentsForPatient() public view returns(address[]){\n        address[] memory providerAddresses = new address[](treatmentsPatient[msg.sender].length);\n        for(uint i = 0; i < treatmentsPatient[msg.sender].length;  i++) {\n            address a = treatmentsPatient[msg.sender][i].providerAddress;\n            providerAddresses[i] = a;\n        }\n\n        return (providerAddresses);\n    }\n\n    //get bytes for ipfs hash links back (patient)\n    function getAllTreatmentsForPatientIpfs(uint counter) public returns(string){\n        return treatmentsPatient[msg.sender][counter].ipfsHash;\n    }\n\n    //get address array back. Provider get all patient addresses which the provider treatments\n    function getAllTreatmentsForProvider() public view returns(address[]){\n        address[] memory patientAddresses = new address[](treatmentsProvider[msg.sender].length);\n\n        for(uint i = 0; i < treatmentsProvider[msg.sender].length;  i++) {\n            address a = treatmentsProvider[msg.sender][i].patientAddress;\n            patientAddresses[i] = a;\n        }\n\n        return patientAddresses;\n    }\n\n    //get bytes for ipfs hash links back (provider)\n    function getAllTreatmentsForProviderIpfs(uint counter) public returns(string){\n        return treatmentsProvider[msg.sender][counter].ipfsHash;\n    }\n\n\n}",
  "sourcePath": "/home/pf/Documents/MasterthesisEMR/contracts/Treatment.sol",
  "compiler": {
    "name": "solc",
    "version": "0.4.24+commit.e67f0147.Emscripten.clang"
  },
  "schemaVersion": "2.0.1",
  "updatedAt": "2018-12-07T18:11:25.429Z"
}